:020000040800F2
:10000000383C02246903000835590008E74C000811
:1000100033590008FD160008A5760008000000000E
:10002000000000000000000000000000AD02000819
:10003000291D00080000000001030008D95C000829
:100040008303000883030008830300088303000878
:100050008303000883030008830300088303000868
:100060008303000883030008830300088303000858
:100070008303000883030008830300088303000848
:100080008303000883030008830300088303000838
:100090008303000883030008830300088303000828
:1000A0008303000883030008830300088303000818
:1000B0008303000883030008830300088303000808
:1000C00083030008830300088303000883030008F8
:1000D00083030008830300088303000883030008E8
:1000E0008303000883030008000000008303000866
:1000F00083030008830300088303000883030008C8
:1001000083030008830300088303000883030008B7
:1001100083030008830300088303000883030008A7
:100120008303000883030008830300088303000897
:1001300083030008111F00088303000883030008DD
:1001400000000000000000000000000000000000AF
:100150008303000883030008830300088303000867
:100160008303000883030008830300088303000857
:1001700083030008830300088303000800000000D5
:100180008303000883030008830300088303000837
:100190008303000883030008830300088303000827
:1001A0008303000883030008830300088303000817
:1001B0008303000883030008830300088303000807
:1001C00083030008830300088303000883030008F7
:1001D00083030008830300088303000883030008E7
:1001E00083030008830300088303000883030008D7
:1001F00083030008830300088303000883030008C7
:1002000083030008830300088303000883030008B6
:1002100083030008830300088303000883030008A6
:100220008303000883030008830300080000000024
:100230008303000883030008000000008303000814
:100240008303000883030008830300088303000876
:100250008303000883030008830300088303000866
:100260008303000883030008830300088303000856
:1002700083030008830300088303000800000000D4
:1002800083030008830300088303000800000000C4
:100290000000000083030008DFF80CD000F09EFD92
:1002A0000048004791D80008383C02242B4B1968BD
:1002B0000868B0E8F04F80F30988BFF36F8F4FF004
:1002C000000080F3118870470000000006480068B5
:1002D000006880F3088862B661B6BFF34F8FBFF342
:1002E0006F8F00DF00BF00BF08ED00E0DFF80C00FB
:1002F000016841F470010160704700BF88ED00E0C3
:10030000EFF30980BFF36F8F144B1A681EF0100FC4
:1003100008BF20ED108A20E9F04F106008B44FF0BC
:10032000500072B680F31188BFF34F8FBFF36F8F09
:1003300062B616F029FE4FF0000080F3118808BC69
:1003400019680868B0E8F04F1EF0100F08BFB0EC55
:10035000108A80F30988BFF36F8F70473000002444
:10036000EFF30580704700000648804706480047C5
:10037000FEE7FEE7FEE7FEE7FEE7FEE7FEE7FEE755
:10038000FEE7FEE7B55D0008990200082DE9F05F81
:100390000546002092469B468846064681464024F4
:1003A0001BE0284641464746224600F0A4FA534641
:1003B0005A46C01A914110D311461846224600F001
:1003C0008BFA2D1A67EB01084F46224601200021C7
:1003D00000F082FA17EB00094E41201EA4F101043F
:1003E000DFDC484631462A464346BDE8F09F000020
:1003F000004870476C7E010810B50446FFF7F8FF0F
:100400000068005D00F0010010BDA0F14101192954
:1004100000D82030704700000649074A086850435A
:1004200043F23902104408604008704701490860EF
:1004300070470000C40100246D4EC64110B5431A38
:10044000934209D28318881803E010F8011D03F8BD
:10045000011D521EF9D210BD40EA01039B0703D0D3
:1004600009E008C9121F08C0042AFAD203E011F8F3
:10047000013B00F8013B521EF9D210BDD2B201E09F
:1004800000F8012B491EFBD270470022F6E710B599
:1004900013460A4604461946FFF7F0FF204610BDF2
:1004A000421C10F8011B0029FBD1801A704710B5BF
:1004B000002200E0521C835C8C5CA34201D1002B23
:1004C000F8D1D8B2E1B2401A10BD30B504460020D0
:1004D000034600E05B1C934203D2E05CCD5C401B12
:1004E000F8D030BD034611F8012B00F8012B002A8B
:1004F000F9D11846704730B505460020034600E0A4
:100500005B1C934205D2EC5CC85C201A01D1002C24
:10051000F6D130BD0FB400B58DB010A909900B9085
:1005200000914FF0FF300A9000200C900548069093
:10053000054807906A4609A80F9900F0F3F90DB035
:100540005DF814FB410900085F0900082DE9FF4F21
:10055000087883B09946FF2805D0491C2D2804D07F
:100560000024002008E000200BE00124F9E700EB64
:10057000800003EB4000491C0B78FF2BF7D104B13E
:10058000404200230293147819461D462D2C01D0B9
:100590002B2C04D1521C2D2C13D000240294AA46DB
:1005A0001478FF2C0FD00A25A3FB057801FB0581E9
:1005B0004FF0000C03FB0C11521CE3194AEB010134
:1005C000EEE70124EAE7814453EA010002D019F57D
:1005D000C87F06DA03980021C0E9001107B0BDE822
:1005E000F08F0025AE4E2F46DFF8B882184600F097
:1005F0009DFBCDE90001B9F1000002DAC9F1000468
:1006000000E004460023A74A1AEB030B42EB045A0E
:1006100012E0E00707D02A4633463846414600F04C
:10062000A4FA074688462A4633461046194600F083
:100630009CFA05460E466410002CEAD1DDE9000163
:10064000B9F1000F5A46534606DA00F000FB3A466D
:10065000434600F0FCFA05E000F087FA3A464346CC
:1006600000F083FA029A0AB181F00041039AC2E9CC
:100670000001B3E72DE9FF4F1F468DB0D7E90146D2
:100680004FF0FF382E2045464FF000090B90B96916
:100690006D1C0E988847396A824688470028F6D133
:1006A000BAF1FF3F0AD024F4D064002E11DDBAF174
:1006B0002B0F08D0BAF12D0F0BD102E0404611B03C
:1006C0008DE744F48064B9696D1C0E9888478246B2
:1006D000761E6946600501D52D2000E02B208DF89F
:1006E000000001F1010B0DF1200809E0B9696D1C52
:1006F0000E98884782460F9844F40074761E056071
:10070000002E02DDBAF1300FF0D00B998A453ED1B0
:1007100044F0800406E00F99681CA9F1010944F433
:1007200000740860B9696D1C761E0E988847824671
:100730003028F0D02BE00B998A4505D1200603D450
:1007400044F08004761E18E0504607F09BF908B389
:100750000DF11301761E44F400748B4508D2AAF102
:1007600030000BF8010B200607D5A9F1010003E0CA
:10077000200602D409F101008146A00502D50F9997
:10078000681C0860B9696D1C0E9888478246002E67
:10079000D1DC53E0002E51DDBAF1650F02D0BAF181
:1007A000450F4BD1A00549D5B9696D1C24F440749F
:1007B000761E0E9888478246002E0CDD2B2804D02A
:1007C000BAF12D0F07D144F48074B9696D1C0E98ED
:1007D00088478246761EE00501D52D2100E02B21B9
:1007E00008F8011BCDF82C8021E00DF12901761EBF
:1007F00044F4007488450CD2AAF1300010F0FF00D8
:1008000088F8000002D10B99884509D908F1010840
:1008100006E0E00501D5244801E042F20F70814670
:10082000B9696D1C0E98884782460F980560002EA6
:1008300004DD504607F026F90028D6D1F9690E9854
:100840008847FF208BF8000088F800000020069001
:1008500007904B466A4608A906A8FFF777FEA00551
:1008600002D46FF001002AE714F0240F0AD0E00749
:1008700014D1DDE906123868031D3B600068C0E949
:1008800000120BE0DDE9060100F08CFA0146E007FA
:1008900004D13868021D3A600068016028460EE7FE
:1008A000000014400000F03FF1D8FFFF30B50B46C8
:1008B000014600202022012409E021FA02F59D4290
:1008C00005D303FA02F5491B04FA02F52844151E64
:1008D000A2F10102F1DC30BD202A04DB203A00FA4B
:1008E00002F1002070479140C2F1200320FA03F387
:1008F000194390407047202A04DB203A21FA02F085
:100900000021704721FA02F3D040C2F12002914049
:1009100008431946704700000268114413780160CB
:1009200018467047D16004495161044911620021A1
:100930001161114600F076BA19090008F9030008A0
:10094000426842B1016811F8013B23B1521EC0E96F
:100950000012184670470121C160881E7047426826
:100960005AB1C368016843B983688B4205D0491EF8
:10097000521CC0E90012002070474FF0FF30704752
:100980000FB4002300B589B00CA900910B996FF04A
:100990000042CB601E4B06931E4B07930423CDE908
:1009A00001321D4A089202466B460020FFF762FEA4
:1009B00009B05DF814FB70B586B006464FF0FF3005
:1009C0000091CDE90101002015460C460490324605
:1009D000694604A8FFF7D4FF02460498211825B100
:1009E00008B1084600E020462860049800280DD091
:1009F000002A02DD0098884208D0081B0094CDE947
:100A000001043246694604A8FFF7BAFF06B070BD7C
:100A1000410900085F090008F90300082DE9FE4FAD
:100A2000804681EA0300C00F0C46009021F000418F
:100A300023F00045B8EB0200A94105D2404621460B
:100A400090461C460B46024623F00040104347D018
:100A5000270DC7F30A00C3F30A510290401A019010
:100A600040286BDAC3F3130040F4801B00989246D1
:100A700020B10023D2EB030A63EB0B0B019859461C
:100A8000C0F140025046FFF727FF06460D4650468C
:100A90005946019A00F0B4F910EB080061410024B6
:100AA00087EA115284EAE7731A4340D0009A62B38E
:100AB000019A012A4FEA075215DC001B61EB020183
:100AC0004FF0004202EA0752CDE90042001C41F516
:100AD000801132462B4600F081FB03B0BDE8F08F59
:100AE00040462146F9E7001B61EB0201001C41F57D
:100AF000801300185B412018A2F5001747EB030193
:100B000040EAD570B6196D4111E06D084FEA36061E
:100B100045EAC0754FEA0752001B61EB0201001C59
:100B200041F5801149084FEA300000195141324621
:100B30002B4603B0BDE8F04F00F041BB0098012206
:100B400040000023D0EB020263EBE07300982146E3
:100B50004FEAE074B8EB000061EB0401E9E783F0D1
:100B600000435BE781F0004158E72DE9FE4F81EA41
:100B7000030404F0004421F0004100944FF0000B06
:100B800023F0004350EA01045ED052EA03045BD034
:100B9000C3F30A54C1F30A552C44A4F2F33401946C
:100BA000A0FB0254C1F3130141F48011C3F31303FA
:100BB00043F4801301FB024400FB034E840A970AAE
:100BC00044EA815447EA8357A4FB076802958D0ADB
:100BD00005FB07854FEA932C04FB0C542705029D67
:100BE0004FEA065847EA1637B5EB08056EEB070CD7
:100BF000870E920E47EA811742EA8312A7FB020191
:100C0000B6EB0B0164EB00042B0D43EA0C335E18CA
:100C100044EB1C50DA465146E7FB0201C5F31304CE
:100C20004FEA0B3343EA14534FEA0432019C43EA80
:100C30000603A4F10C040294009CCDE900B400F07A
:100C4000CDFA03B0BDE8F08F00200146F9E72DE9A9
:100C5000F04D81EA030404F0004B21F000451446F6
:100C60004FF0000A23F0004150EA050220D054EA78
:100C700001021DD0C5F30A570246C5F31303C1F3A1
:100C80001300C1F30A5640F4801543F48013A7EB18
:100C90000608101BD64608F2FD3873EB050002D398
:100CA00008F1010801E092185B41B8F1000F03DA86
:100CB00000200146BDE8F08D00204FF4801106466B
:100CC00084460EE0171B73EB050705D3121B63EB7D
:100CD000050306434CEA010C49084FEA300092181C
:100CE0005B4150EA0107EDD152EA030012D082EADB
:100CF000040083EA0501084305D0101BAB4106D26E
:100D00000122002306E000224FF0004302E06FF0D2
:100D1000010253101AEB06004CEB085110EB0A00CD
:100D200041EB0B01BDE8F04D00F049BA0EB540F2C1
:100D3000334202920022CDE90022134600F04EFA1F
:100D400003B000BDC1F30A52C1F3130140F2FF33F7
:100D500041F480119A4202DA00200146704740F2C5
:100D600033439A42A2F2334202DC5242FFF7C3BD40
:100D7000FFF7B2BD30B5041E71F1000404DB4FF083
:100D80000044404264EB0101141E73F1000405DBD2
:100D90001C464FF00043524263EB0403994208BFE4
:100DA000904230BD01F0004330B421F0004150EAE0
:100DB000010206D00A0DA2F56072C1F31301002AE8
:100DC00002DC30BC00207047440F44EAC104C1007B
:100DD000E01830BC00EBC25000F0BAB9064C074D29
:100DE00006E0E06840F0010394E8070098471034FB
:100DF000AC42F6D3FFF754FAB8800108D880010856
:100E0000202A06DBCB17203A41FA02F043EAE073CE
:100E100006E041FA02F3D040C2F1200291400843BB
:100E2000194670472DE9F34F8BB04FF0000801F1E0
:100E30000C000C464FF0010B46460DF1080A0190DC
:100E40006269012101989047051E2DD0252D2CD0D7
:100E5000216A8847C0B16269012101989047216ADF
:100E600088470028F7D1411E62690198904700E049
:100E7000761CA1690B988847216A88470028F7D11A
:100E8000E1690B988847DBE7A1690B98884707461B
:100E9000A84201D1761CD3E7E1690B9888477F1CF3
:100EA00002D1B8F1000F6FD046E1002762693D46DC
:100EB0003946019890472A2804D162690121019896
:100EC00090470125DFF884926269012101989047DB
:100ED000A0F130010A290AD24F45E5DC07EB870172
:100EE00000EB4107303FDFD445F01005ECE7E906A1
:100EF00001D46FF000476C280AD04C2814D0682821
:100F000015D06A280DD074281CD07A281AD01DE07C
:100F100062690121019890476C2802D045F00405D0
:100F200014E045F002050DE045F020050AE0626995
:100F3000012101989047682802D045F0080505E096
:100F400045F400656269012101989047C4E90157A1
:100F500065283DD019DC58287AD00CDC452837D0DC
:100F600004DC252826D0412831D131E046282FD075
:100F700047282CD12CE05B2877D0612828D0632823
:100F80007CD0642823D15AE0D0E06F2848D008DC18
:100F900066281DD067281BD0692821D06E2816D15D
:100FA00027E0702845D0732868D0752847D0782866
:100FB0000DD14DE0A1690B988847054625283FF4DF
:100FC00069AFE1690B9888476D1C3FF46AAFB3E0E5
:100FD00023466A466FF001000B99FFF74BFB9EE03A
:100FE00045F040006060A80723464FF0000236D469
:100FF0003EE0E8077FF447AF2068011D21600068EC
:10100000290501D506701BE7290701D5068017E7DA
:10101000A90703D5F117C0E9006111E706600FE7E2
:1010200045F040006060A80723464FF0080216D440
:101030001EE040F60E0125EA0100606016E045F072
:1010400040006060A80723464FF00A0207D40FE073
:1010500045F040006060A80708D5234610226FF0D5
:1010600001000B99AFF3008059E007E023461022FE
:101070006FF001000B99AFF3008050E04FF00009D2
:101080004F464B46632802D05B2806D040E0E80676
:1010900001D40120A06001273AE062690121019892
:1010A00090475E2805D14FF00109626949460198D1
:1010B0009047216939B900210A46534643F8212057
:1010C000491C0829FADBB0B3216969B9C11700EBE3
:1010D000D16253110AEB830122F01F02821A012010
:1010E0000B68904003430B606269012101989047AF
:1010F0005D28E8D1B9F1000F09D00020514651F820
:101100002020D24341F82020401C0828F7DB02AB06
:10111000224600976FF001000B99AFF30080002882
:101120000CDA401C08D1BBF1000F05D04FF0FF30A6
:101130000DB0BDE8F08FFFE74046F9E7E90701D1C0
:1011400008F1010806444FF0000B79E6CCCCCC0C3A
:101150000029A8BF7047401C490008BF20F00100CB
:10116000704710B4B0FA80FC00FA0CF050EA0104A9
:1011700004BF10BC704749B1CCF1200421FA04F43B
:1011800011FA0CF118BF012121430843A3EB0C0114
:10119000CB1D4FEA00614FEA102042BF002010BC77
:1011A000704700EBC35010440029A4BF10BC704727
:1011B000401C490008BF20F0010010BC704710B56A
:1011C000141E73F1000408DA401C41F1000192186A
:1011D0005B411A4301D120F0010010BD2DE9F04D13
:1011E00092469B4611B1B1FA81F202E0B0FA80F268
:1011F00020329046FFF770FB04460F4640EA0A0093
:1012000041EA0B0153465A46084313D0114653EAAC
:10121000010019D0C8F140025046FFF76CFB0546AB
:101220000E46504659464246FFF756FB084305D046
:10123000012004E020463946BDE8F08D002005433A
:1012400046EAE0762C4337430A986305E40AA0EBAC
:1012500008000022FD0A44EA47540A3002D5002063
:101260000146E9E7010510196941DDE90845001962
:101270006941BDE8F04DA2E770B58C1810F8015B2C
:1012800015F0070301D110F8013B2A1106D110F81F
:10129000012B03E010F8016B01F8016B5B1EF9D123
:1012A0002B0705D40023521E0DD401F8013BFAE7A9
:1012B00010F8013BCB1A921C03E013F8015B01F814
:1012C000015B521EF9D5A142D8D3002070BD0000A9
:1012D0001CB504210022084615F0AEFF334CE06037
:1012E00010B133A006F0B4FA04F0B0FD39A006F056
:1012F000AFFA454806F0ACFA444806F0A9FA44A013
:1013000006F0A6FA4FA006F0A3FA5DA006F0A0FA38
:10131000664806F09DFA66A140F25B7271A006F085
:1013200097FA7AA183A006F093FA88A18EA006F01E
:101330008FFA93A19DA006F08BFAA2A1ACA006F0B3
:1013400087FAB0A1B3A006F083FA0CF0E7FF15F01E
:1013500027FB164802210023001D4A02CDE9001098
:10136000B648B3A116F03AFA012805D1B4A006F0A8
:101370006FFAB7A006F06CFA0C4801210023083080
:101380004A02CDE90010BD48B9A116F027FA01289C
:1013900005D1ABA006F05CFAB9A006F059FA2068B6
:1013A00015F092FCBDE81C4015F03ABB1400002477
:1013B000B4B4BDA84D5154545F446174615F51751C
:1013C000657565CFFBCFA2B6D3C1D0B3C9B9A6218D
:1013D0000D0A0000B1BEC0FDB3CCCAB9D3C3BFAAC9
:1013E000B7A2B0E5BDD3C8EBB0A2C0EFD4C6A3ACE2
:1013F000B2A2C7D2C9CFB1A8CEC2CAAAB6C8CAFDC6
:10140000BEDD0A0A00000000C07E01081C7F010842
:10141000B1BEC0FDB3CCB5C44950B5D8D6B7BEF93E
:10142000D4DA557365722F617263682F7379735FB5
:10143000617263682E68CEC4BCFED6D0D0DEB8C45C
:101440000A0A0000B1BEC0FDB3CCB2CEBFBC3C3C6A
:101450004C774950D3A6D3C3CAB5D5BDBFAAB7A24E
:10146000D6B8C4CF3E3EB5DA3233D5C220C1ACBD0A
:10147000D3B5BDB0A2C0EFD4C6CEEFC1AA0A0A0050
:10148000D4DABFAAB7A2B0E5B5C46468743131BD7F
:10149000D3BFDABDD3C9CF4448543131CEC2CAAA72
:1014A000B6C8B4ABB8D0C6F70A0A0000707E01080F
:1014B00061314D5A486A4B325343462E696F742D41
:1014C00061732D6D7174742E636E2D7368616E6718
:1014D0006861692E616C6979756E63732E636F6DD7
:1014E00000000000B0A2C0EFD4C6D3F2C3FB2F4966
:1014F00050B5D8D6B7203A202573200920B6CBBFE7
:10150000DABAC5203A202564200A0A003132333481
:10151000357C7365637572656D6F64653D332C73DF
:1015200069676E6D6574686F643D686D616373684B
:1015300061317C00B0A2C0EFD4C6434C49454E5443
:101540005F4944203A2025730A0A000066697265E3
:101550005F74656D705F68756D2661314D5A486ABC
:101560004B32534346000000B0A2C0EFD4C65553DF
:1015700045525F4E414D45203A2025730A0A00002E
:101580004436343139383936453742454146384298
:101590004439443033433838424638353445413095
:1015A000443344353036414500000000B0A2C0EF5E
:1015B000D4C650415353574F5244203A2025730A02
:1015C0000A0000002F61314D5A486A4B325343469E
:1015D0002F666972655F74656D705F68756D2F75D4
:1015E0007365722F74656D705F68756D0000000023
:1015F000B0A2C0EFD4C6544F504943203A202573BF
:101600000A0A0000746573745F6D657373616765C2
:1016100000000000B0A2C0EFD4C6544553545F4D43
:10162000455353414745203A2025730A0A000000DC
:1016300054657374315F5461736B0000F15E000890
:101640000D0A5B44454255475D203E3E20000000A8
:101650004372656174652054657374315F546173BE
:101660006B207375636573732E2E2E0D0A000000B8
:1016700054657374325F5461736B0000795F0008C6
:101680004372656174652054657374325F5461738D
:101690006B207375636573732E2E2E0A0A0000008B
:1016A00010B503F0BBFB00F02BF801F025FE00F0B5
:1016B00093FF0848016841F00401016004F024FB35
:1016C00003F050FB00F0C8F9BDE8104002A006F09E
:1016D000BFB800009CEF00E02D2D2D2D2D2D2D2DC0
:1016E0002D2D2D204C7769702064656D6F202D2D78
:1016F0002D2D2D2D2D2D2D2D2D2D0A00FEE7000039
:10170000F0B5BFF34F8FBFF36F8F1B490020086008
:10171000BFF34F8FBFF36F8F184E316841F4003124
:101720003160BFF34F8FBFF36F8F14497031086082
:10173000BFF34F8F081F0068C0F34E310E4A43F6C7
:10174000FF771032C0F3C905284607EA411343EA80
:1017500080741460401E441CF9D1491E481CF3D10A
:10176000BFF34F8F306840F480303060BFF34F8F4D
:10177000BFF36F8FF0BD000050EF00E014ED00E00C
:101780000148406870470000001000E070B5054651
:10179000002402F05DFE0C49B0FBF1F26A43FFF752
:1017A000EFFF0146FFF7ECFF8842FBD003D9A0EB27
:1017B00001010C4403E06FEA010101440C440146BD
:1017C0009442EFD370BD000040420F00F8B535A041
:1017D00069460DF047F8684609F094FE07463EA0BA
:1017E00006F036F82FA13A463FA006F031F8464CF5
:1017F00040F25B7538A006F02BF844A006F028F8FC
:1018000035A006F025F84AA02A46394606F020F809
:1018100040F6B8362946384614F0EEFA60600028E3
:1018200018DB2DA006F014F84AA006F011F82AA043
:1018300006F00EF84DA006F00BF803F06BFF002841
:1018400012D025A006F004F850A006F001F814F01C
:10185000B5FACFE720A005F0FBFF55A005F0F8FF93
:10186000304615F0F5F9D5E71BA005F0F1FF5CA0B7
:1018700005F0EEFF606801225EA103F0CBFE0028B8
:1018800008DA15A005F0E4FF65A005F0E1FF14F00B
:1018900095FAAFE710A005F0DBFF67A005F0D8FFD1
:1018A000F8BD000061314D5A486A4B325343462E11
:1018B000696F742D61732D6D7174742E636E2D7349
:1018C00068616E676861692E616C6979756E6373B2
:1018D0002E636F6D000000000D0A5B4445425547C2
:1018E0005D203E3E20000000686F7374206E616DC5
:1018F00065203A202573202C20686F73745F69700F
:10190000203A2025730A000024000024312EBFAAAB
:10191000CABCC1ACBDD3B6D4D3A6D4C6C6BDCCA8B0
:10192000B5C4B7FECEF1C6F72E2E2E0A0000000079
:10193000B7FECEF1C6F74950B5D8D6B7A3BA2573CE
:10194000A3ACB6CBBFDABAC5A3BA253064A3A10A4B
:1019500000000000C1ACBDD3D4C6C6BDCCA8B7FE44
:10196000CEF1C6F7B3C9B9A6A3A10A00322E4D51D4
:101970005454D3C3BBA7C3FBD3EBC3D8D4BFD1E963
:10198000D6A4B5C7C2BD2E2E2E0A00004D51545408
:10199000D3C3BBA7C3FBD3EBC3D8D4BFD1E9D6A471
:1019A000B5C7C2BDCAA7B0DC2E2E2E0A00000000AB
:1019B000C1ACBDD3D4C6C6BDCCA8B7FECEF1C6F768
:1019C000CAA7B0DCA3ACB5C8B4FD33C3EBD4D9B35C
:1019D000A2CAD4D6D8D0C2C1ACBDD3A3A10A00003C
:1019E000332EBFAACABCB6A9D4C4CFFBCFA22E2E19
:1019F0002E0A00002F61314D5A486A4B325343463C
:101A00002F666972655F74656D705F68756D2F759F
:101A10007365722F74656D705F68756D00000000EE
:101A2000BFCDBBA7B6CBB6A9D4C4CFFBCFA2CAA7A4
:101A3000B0DC2E2E2E0A0000342EBFAACABCD1ADB7
:101A4000BBB7BDD3CAD5B6A9D4C4B5C4CFFBCFA24A
:101A50002E2E2E0A0000000070B5B6B02B4801688B
:101A600041F002010160016801F002010191016889
:101A700041F002010160006800F0020001900124C1
:101A800002940025209502A801F0E8FE1F481030BE
:101A9000016841F010010160006800F01000019041
:101AA00040203190022032903394349007243594B2
:101AB00031A9174E304601F0FDFA8021319135945D
:101AC00031A9304601F0F6FA134C124820604FF469
:101AD000E1306060A560E56025610C206061A56172
:101AE000E5612562A562204603F060F80022062128
:101AF000252001F099FC252001F089FC206801686F
:101B000041F02001016036B070BD0000E044025891
:101B10000004025800100140E801002408B50948FB
:101B2000016841F010010160006800F010000090B1
:101B300000F01CF801220448BDE80840082101F02B
:101B4000B8BB0000E04402580010025800B585B050
:101B50000820009000200190012002906946024870
:101B600001F0A8FA05B000BD0010025800B585B01C
:101B7000082000900120019002200390694602484D
:101B800001F098FA05B000BD001002582DE9F047A9
:101B900000260025DFF884904FF47A774FF0010893
:101BA00009E0641CA4B2BC4202D90020BDE8F08761
:101BB0000120FFF7EBFD0821484601F073FB0028E8
:101BC000EFD03220FFF7E2FD00244846082101F063
:101BD00069FB012813D0C5F1070008FA00F086431D
:101BE0006D1CEDB2082DE6D33046DFE7641CA4B2CD
:101BF000BC4201D90020D9E70120FFF7C7FD082129
:101C0000484601F04FFB0128F0D00024C5F1070041
:101C100008FA00F0C0B20643E2E7000000100258E4
:101C200070B50446FFF7A2FF3C4E00220821304663
:101C300001F03FFB44F25060FFF7A8FD012230465F
:101C4000082101F036FB1E20FFF7A0FDFFF77EFF05
:101C50000821304601F026FB08B1002070BD0025A8
:101C600008E06D1CADB2642D01D9002070BD0120CB
:101C7000FFF78CFD0821304601F014FB0028F0D05E
:101C8000002508E06D1CADB2642D01D9002070BDA7
:101C90000120FFF77BFD0821304601F003FB0128FE
:101CA000F0D0FFF773FF2070FFF770FF6070FFF751
:101CB0006DFFA070FFF76AFFE070FFF767FF024655
:101CC00020712078657800EBC00101EB001105EB75
:101CD000810100EE101AB8EE401B9FED110B81EE52
:101CE000002B84ED022BA178E37801EBC10606EB13
:101CF000011603EB860601EE106AB8EE411B81EE79
:101D0000002B84ED042B284419440844C1B28A42B4
:101D100001D1012070BD002070BD000000100258EC
:101D20000000000000005940704710B50022002359
:101D3000016902EB420401EBC4010B604B608B6054
:101D4000CB600B614B6100EB8204E162521C042A00
:101D5000EED3C36303644364C364836403220168F2
:101D600001F58051C1F830210168026901F5805107
:101D7000C1F81C210169006801F5D86100F58050A7
:101D8000C0F8281110BD10B500220023C16802EB75
:101D9000420401EBC4010B604B608B60CB6000EB35
:101DA0008204A161521C042AF0D3836203220168D9
:101DB00001F58051C1F82C210168C26801F58051FC
:101DC000C1F81421C168006800F58050C0F82011E6
:101DD00010BD0000F0B587B04948016841F001012D
:101DE0000160016801F001010191016841F0040105
:101DF0000160016801F004010191016841F00101F5
:101E00000160016801F001010191016841F00101E7
:101E10000160016801F001010191016841F00401D4
:101E20000160016801F004010191016841F00401C1
:101E30000160016801F004010191016841F0400175
:101E40000160016801F040010191016841F0400129
:101E50000160016801F040010191016841F0400119
:101E60000160006800F0400001900420029002250B
:101E700005950395002004900B24069402A9214E99
:101E8000304601F017F90295069402A91E4F384614
:101E900001F010F90295069402A9304601F00AF902
:101EA00080200290069402A9304601F003F9102028
:101EB0000290069402A9384601F0FCF82020029016
:101EC000069402A9384601F0F5F8A802029006949B
:101ED00002A90E4D284601F0EDF84FF40051029191
:101EE000069402A9284601F0E5F84FF480410291DA
:101EF000069402A9284601F0DDF807B0F0BD000005
:101F0000E044025800000258000802580018025825
:101F100010B55020EFF3118472B680F31188BFF32F
:101F20004F8FBFF36F8F62B6024800F051FD84F30C
:101F3000118810BD44F9012470B5A2B006460125F0
:101F40008DF83350002412948DF841408DF84340B1
:101F50008DF828508DF856508DF832508DF84C4041
:101F60008DF8845068030F908DF85C4018948DF8BC
:101F700085408DF886404FF4C36016908DF8304050
:101F80000B948DF835508DF836408DF840401D94F7
:101F90001B9414948DF864408DF87A408DF842506B
:101FA000202020908DF844508DF855404FF040503F
:101FB0000990A8030E908DF8314002201F908DF8F3
:101FC00078408DF879408DF854408DF834501A944B
:101FD0008DF8705009A9304600F034FA8DF804509D
:101FE000029500948DF81C408DF80D408DF80C4042
:101FF000690506918DF8144004918DF81D404FF449
:10200000067008906946304600F0CCF922B070BDE9
:1020100070B505462868D0F8000220F4706402F01C
:10202000DDF91149114A0144914202D244F400748D
:1020300016E00F490F4A0144914202D244F4407421
:102040000EE00D490D4A0144914209D30C49084460
:102050000C49884202D244F4807401E044F4806464
:102060002868C0F8004270BD00D3CEFEC0E1E40095
:1020700040F1E9FD40787D0100796CFC005A620274
:10208000001F0AFA80F0FA022DE9F04700F1180764
:102090003D692E464FF0000C57F825308C68D3F878
:1020A0000C80B8F1000F02DA0220BDE8F08791F849
:1020B00000805FEA487843D5D3F80C80D1F82490AB
:1020C0006FF30F0848EA0908C3F80C80D3F80C80B6
:1020D00048F48038C3F80C80D0F80080D8F86090BD
:1020E00049F48019C8F8609091F800805FEA087898
:1020F00026D5B1F82C90D3F8088069F31F48C3F8AF
:102100000880D3F80C8048F40038C3F80C80D3F86A
:102110000C80D1F8309028F4402848EA0908C3F828
:102120000C80D0F80080D8F8649049F48019C8F881
:1021300064900068D0F8508048F08068C0F8508003
:102140000878C0060BD59868D1F818806FF30D0099
:1021500040EA08009860D86840F08060D86008784D
:1021600010F0140F1AD0D86840F08040D860D868BA
:1021700040F00040D8606D1C042D00D32D1F57F88F
:1021800025304FF0010CD868002807DA57F82600F0
:10219000C16821F00041C160022086E70CF1010C0A
:1021A000206818609868D4F804806FF30D0040EA46
:1021B00008009860DFF8E8814FF00009A06858B186
:1021C000044620685860D3F808A0A0880AEA080AE4
:1021D0004AEA0040986005E0C3F80490986800EA75
:1021E000080098600878C00614D5D868B1F820A017
:1021F00020F4F00040EACA40D860D868D1F81CA0AA
:102200006FF3110040EA0A00D860D86840F48020DB
:10221000D8601DE0D868D1F804A06FF30E0040EA42
:102220000A00D8600878C00707D0D868D1F814A091
:1022300020F4403040EA0A00D8600878800607D5CC
:10224000D868D1F810A020F0406040EA0A00D860B9
:102250000878400707D59868D1F828A020F44040B6
:1022600040EA0A009860D86840F00050D860D8680A
:1022700020F08040D860D86840F00040D8600878EE
:10228000800778D5D868D1F80CA020F0607040EABB
:102290000A00D8606FE0D86820F08050D8606D1CCC
:1022A000042D00D32D1F57F82530D86820F000509A
:1022B000D860D868002812DA57F8261000200AE003
:1022C000CA6822F00042CA60761C042E00D3361F72
:1022D00057F82610401C6045F2D30220E5E60CF1C9
:1022E000010CA468206818609868D4F804A06FF303
:1022F0000D0040EA0A009860A06858B104462068C2
:1023000058609868B4F804A000EA080040EA0A405F
:10231000986005E0C3F80490986800EA08009860A7
:102320000878C0060CD5D868D1F81CA06FF311004E
:1023300040EA0A00D860D86840F48020D86012E0F3
:10234000D868D1F804A06FF30E0040EA0A00D86004
:102350000878C00707D0D868D1F814A020F440301E
:1023600040EA0A00D860D86840F00040D860D868D9
:1023700020F08040D860A06800288CD122B19868F5
:1023800040F00040986003E0986820F000409860BA
:10239000D86840F08050D8603D61002085E600009C
:1023A000FFFF00C030B5026802F58052136847F69F
:1023B0000204A3430C68234313600A790B7B1203C6
:1023C00042EAC3338A681343026802F580525468B4
:1023D0004DF20105AC431C4354604B7B0A6A42EA50
:1023E0000343026802F58052D2F80041124D2C409E
:1023F0001C43C2F800410A7D4B7F120142EA0333BD
:102400000A691343026802F58052D2F804410B4D69
:102410002C401C43C2F804418A69097F42EAC17119
:10242000006800F58050D0F80821054B1A400A4397
:10243000C0F8082130BD000000C0FEFFEFEFC0FF74
:10244000FFFFC07F30B50B688A680C7B1A430B799D
:10245000DB0643EAC4531A434B7B42EA83528B7B2D
:1024600042EA4352CB7B42EA03530A7C002A7CD0E7
:10247000002243EAC2434A7C002A77D0002243EA82
:1024800042428B7C42EA03424B691A438B691A43EE
:102490000B7F42EA03324B7F42EAC3238A7F002A42
:1024A00065D0002243EA8222CB7F42EA432391F89F
:1024B0002020002A7CD0002243EA022251F8243F47
:1024C0001A430B7942EA03138A68134302681468BB
:1024D0003F4D2C401C4314600A7E0B7D520642EA9D
:1024E00003620B7B42EA83424B7B42EA43438A7B93
:1024F0002439002A65D0002243EA02434A6B134381
:1025000002685468334D2C401C43546091F84030AD
:102510004A6C42EA03230268D46840F20F15AC43C8
:102520001C43D46091F854300A6D42EA430391F899
:102530004C20E2B3002231F8484FD20142EA044273
:1025400013430268146F4FF60D752C401C4314673B
:102550004B7B8A7B42EA4303026852F8904F24F097
:1025600003041C431460026802E022E023E024E03C
:10257000D2F8003D0C6923F072032343C2F8003DFA
:102580000A7E4B69483902B3002243EA821211F8ED
:10259000613F49781B0143EAC1010A430068D0F852
:1025A000301D21F07B011143C0F8301D30BD0AE021
:1025B00005E001225DE7012261E7012272E70122C5
:1025C0007AE7012298E70122B5E70122DDE7000062
:1025D000838004000080F8C008B51948016841F004
:1025E00080010160016801F080010091016841F003
:1025F00004010160016801F004010091016841F0EB
:1026000001010160016801F001010091016841F0E0
:1026100002010160016801F002010091016841F0CE
:1026200040010160016801F040010091016841F43E
:1026300080710160006800F48070009008BD0000A7
:10264000E044025802490888421C0A807047000092
:102650002400002470B5044600F038FE0546601CD6
:1026600002D004480078044400F030FE401BA04231
:10267000FAD370BD0800002470B500F12C035A692C
:1026800053F822109D69002D04D0DC6904B16D1C43
:10269000002423E0012070BD0E690E604FF08076AB
:1026A000CE604E692EB14E698E60CE6846F00076DF
:1026B000CE60CE6846F00046CE601E6A1EB1CE687F
:1026C00046F08046CE609E69761EA64205D9521C11
:1026D000042A00D3121F53F82210641CAC42DBD32F
:1026E000006800F58050C0F828110020986170BD86
:1026F000704710B500EB8104E46A002A01D0042978
:1027000003D30121C165012010BD22602261E06870
:1027100040F08070E0602BB1A3606361E06840F03E
:102720000070E060E06840F00040E060002010BD14
:10273000704700297DD00268126802F00C02CA625C
:1027400002681268C2F3001281F828200268126839
:1027500002F060024A620268126842F30022521CD0
:1027600081F8202002681268C2F34022CA7702680A
:10277000126842F38022521C8A7702681268C2F300
:10278000C0224A7702681268C2F300320A770268F0
:10279000126802F400528A610268126802F48042F0
:1027A0004A6102681268C2F300428A7402681268C1
:1027B00042F34042521C4A740268126842F3C0421B
:1027C000521C0A7402681268C2F30052CA7302688B
:1027D0001268C2F340528A7302681268C2F38052D0
:1027E0004A7302681268C2F3C0520A730268126820
:1027F00002F0E0628A6002681268C2F3C0620A7185
:102800000268126802F0E0420A6002685268C2F38D
:102810000D024A630268526842F30042521C81F87A
:10282000322002685268C2F3404281F831200268C7
:1028300000E062E05268C2F3804281F83020026812
:102840005268C2F3006281F8382002685268C2F30D
:102850004462CA630268D268C2F3002281F8402051
:102860000268D26802F00F024A640268126FC2F373
:10287000400281F854200268126F42F3C012521CC9
:1028800081F84C200268126F02F070020A6502683B
:10289000126F120C8A640268D2F89020C2F3000210
:1028A00081F856200268D2F89020C2F3400281F8E5
:1028B00055200268D2F8002D02F072028A65026883
:1028C000D2F8302D02F02302CA650268D2F8302D0A
:1028D000C2F3C00281F862200268D2F8302DC2F340
:1028E000001281F861200068D0F8300D40F38010AC
:1028F000401C81F860000020704701207047F0B54F
:1029000006460C4606F12C056B69002755F8232076
:10291000002C02D0A86918B109E00120F065F0BDD3
:10292000304600F07DF920B16B6955F82320002076
:1029300017E00120F0BD1169216071696160516982
:1029400021B1A4685169216071696160D168C1F3E6
:102950000E075B1C042B00D31B1F55F82320A46813
:10296000401CA969491E8142E5D8D068C0F30E0019
:10297000C01B116921607169814201D3606008E068
:10298000536943B16160A16852690A607269801A33
:1029900048600020F0BD0120F0BD70B50E4600F18A
:1029A0002C046569A169002902D100F039F968B1E8
:1029B000A0696D1E2844042800D3001F54F820008D
:1029C000C068C0F30E003060002070BD012070BDF3
:1029D00070B50446206800F58050D0F860114906B3
:1029E0000DD5D0F83401400609D5204600F0E4F9B1
:1029F000206848F2400100F58050C0F8601120685E
:102A000000F58050D0F86011C9070DD0D0F834011E
:102A1000C00709D0204600F0FBFA206848F2010107
:102A200000F58050C0F86011206800F58050D0F8A3
:102A300060114FF0E006490424D5D0F83411490460
:102A400020D5E16D41F00801E165D0F86011C904BD
:102A50000CD500F59A70C16A41F20212114021664C
:102A6000016821F440410160666508E0D0F860111A
:102A700001F4CD4121664FF4CD41C0F860112046EC
:102A8000FFF736FE2068D0F8B0100025C1F34131C1
:102A9000032907D1D0F8B80060666665204600F0CB
:102AA0002CF965662068D0F8B010C90608D5D0F8B2
:102AB000C00000F06000A066204600F047F9A5665F
:102AC0002068D0F8B010890608D5D0F8C00000F012
:102AD0000F00E0662046FFF72BFEE5664FF0B040A2
:102AE000D0F8A810490206D54FF48001C0F8A8100C
:102AF000204600F0ABFA70BDF8B50446002C02D0B9
:102B0000606D10B104E00120F8BD204600F0F6F839
:102B1000232060654048016841F0020101600068BF
:102B200000F002000090207A88B14FF4000002F01B
:102B300033F8206800F58050016841F00101016020
:102B400000F0C4FB0546E0264FF4FA770DE00020C4
:102B500002F022F8EDE700F0B9FB401BB84204D9BF
:102B60000420E06566650120F8BD206800F580500E
:102B70000068C007EFD12046FFF74AFA01F02EFCAB
:102B80002649B0FBF1F02168401EC1F8DC00204668
:102B9000FFF7D2F9206800F58050D0F8001121F439
:102BA000E01141F40021C0F800116169880703D0E9
:102BB0000120E0656665F8BD206800F58050D0F81A
:102BC000082147F6FE739A4342EA4101C0F8081112
:102BD0002046FFF7D8F82046FFF7A7F8606801798C
:102BE000407941EA00202168C1F800036068C2789A
:102BF000017841EA026182784078120442EA0020BA
:102C000001432068C0F804130020E06510206065CF
:102C1000A0650020F8BD0000F444025840420F00B7
:102C200070B52C30016950F82120002500240023C4
:102C30008669002E33D0002070BD6D1CD668F6006A
:102C40001AD5641C012C00D10B46491C042900D361
:102C5000091F50F82120D568002D08DBD2685200EA
:102C600005D50122C261491C042900D3091F016155
:102C700043618461012070BDD268920008D50B4683
:102C80000124491C042900D3091F50F8212006E023
:102C9000641C491C042900D3091F50F82120D66860
:102CA000002E01DB042DC8D31CB350F823200021D3
:102CB0001DE0156915604FF08075D56055692DB11F
:102CC00055699560D56845F00075D560D56845F0C3
:102CD0000045D560056A1DB1D56845F08045D560D1
:102CE0005B1C042B00D31B1F50F82320491CA1425E
:102CF000DFD300218161002070BD704708B5FFF768
:102D000069F8002207213D2000F08EFB3D2000F0F5
:102D10007EFB0D48016841F400410160016801F447
:102D200000410091016841F480310160016801F4C3
:102D300080310091016841F400310160006800F4C5
:102D40000030009008BD0000D844025870472DE9BB
:102D5000F04104461F462068D0F80032DB0702D05D
:102D60000120BDE8F081D0F8003223F0787343EA07
:102D7000415121F4F81141EA024141F00C0141F0C6
:102D80000101C0F8001200F0A1FA05464FF47A766E
:102D900006E000F09BFA401BB04201D90120E0E7B9
:102DA0002068D0F80002C007F3D12068D0F80402F0
:102DB00080B238600020D4E708B50C48416981F042
:102DC000040141610020009009486946006814F040
:102DD00057FC0098002807D006494FF08050086043
:102DE000BFF34F8FBFF36F8F08BD00000010025874
:102DF0007C01002404ED00E010B5002904D0826DB0
:102E0000102A03D0012010BD012010BDFFF71AFBCE
:102E1000002010BD10B50021C26A436D102B01D0F7
:102E2000012010BD232343650023D46844F080446F
:102E3000D460491C042900D3091F00EB8102D26A27
:102E40005B1C042BF1D30121C16401680A6842F0C4
:102E500002020A6001680A6842F001020A60016821
:102E6000D1F8002D42F00102C1F8002D016801F5F2
:102E70008051D1F8042142F00102C1F80421016817
:102E800001F58051D1F8082142F00102C1F8082172
:102E9000016801F58051D1F8602142F48172C1F8D6
:102EA00060211021416522218165006800F5805074
:102EB000D0F834114DF241021143C0F83411002012
:102EC00010BD10B5C26A416D00293DD02321416576
:102ED000016801F58051D1F8343148F24104A3432F
:102EE000C1F83431016801F58051D1F8043123F083
:102EF0000103C1F80431016801F58051D1F80831AE
:102F000023F00103C1F8083101680B6823F00103C5
:102F10000B600168D1F8003D43F00103C1F8003DAA
:102F200001680B6823F002030B600021D36823F0D3
:102F30008043D360491C0429F8D30021C1641021C7
:102F400041658165002010BD012010BD2DE9F041D3
:102F500004461546002905D0606D102808D00120D0
:102F6000BDE8F081E06D40F00100E0650120F7E789
:102F700000222046FFF788F828B1E06D40F00200FB
:102F8000E0650120ECE7A06A04EB80018F69401C3A
:102F9000A062042801D3001FA062A06A04EB800095
:102FA0008169206800F58050C0F8201100F08EF98A
:102FB00006464FF010081CE0206800F58050D0F85D
:102FC0006001C0040DD5E06D40F00800E0652068A8
:102FD00000F58050D0F860012066E0206065012097
:102FE000BEE7681C05D000F071F9801BA84207D825
:102FF00035B1F8680028DFDBC4F854800020AFE763
:10300000E06D40F00400E065C4F854800120A7E7BB
:1030100010B504A004F01CFCBDE8104005A004F0AD
:1030200017BC00000D0A5B44454255475D203E3EFB
:103030002000000048414C5F4554485F547843707D
:103040006C7443616C6C6261636B0A0070470000D2
:1030500070B505462868D0F80042E40701D0012089
:1030600070BDD0F8000220F0787040EA415020F4A2
:10307000F81040EA024020F00C00001D40F0010072
:103080000B499AB24A60086000F020F904464FF4F8
:103090007A7606E000F01AF9001BB04201D901204F
:1030A00070BD2868D0F80002C007F3D170BD0000E1
:1030B000008202402DE9F84F00226E4C4FF0B049DB
:1030C0004FF0010A4FF0030E4FF00F08CAE00AFA62
:1030D00002F73B40002B70D04D68022D01D0122D1D
:1030E00012D1D50800EB850CDCF820605507ED0EF9
:1030F00008FA05FB26EA0B06D1F810B00BFA05FB1F
:103100004BEA060BCCF820B0D0F800C055000EFA00
:1031100005F62CEA060C91F804B00BF0030B0BFA41
:1031200005FB4BEA0C0BC0F800B0D1F804C0BCF1B1
:10313000010F08D0BCF1020F05D0BCF1110F02D075
:10314000BCF1120F16D1D0F808C02CEA060CD1F849
:103150000CB00BFA05FB4BEA0C0BC0F808B0D0F82A
:1031600004C02CEA070C0F79C7F30017974047EA11
:103170000C074760C768B7438E68AE403E43C660E1
:103180004D68ED006DD53C4D2E6846F002062E6070
:103190002D6805F00205009522F0030606F1B04601
:1031A000D6F808C495072F0F08FA07F52CEA050C86
:1031B000324DA84202D100252EE052E0304DA84207
:1031C00001D1012528E02F4DA84201D1022523E09D
:1031D0002D4DA84201D103251EE02C4DA84201D15E
:1031E000042519E02A4DA84201D1052514E0294DF6
:1031F000A84201D106250FE0274DA84201D107259D
:103200000AE0264DA84201D1082505E0244DA84238
:1032100001D1092500E00A25BD4045EA0C05C6F8A4
:10322000085425689D434E68F60300D51D4325606C
:1032300065689D434E68B60300D51D436560D9F8A7
:1032400000509D434E68F60200D51D43C9F800505A
:10325000D9F804509D434E68B60200D51D43C9F805
:103260000450521C0B6833FA02F57FF430AFBDE80E
:10327000F88F000080000058F44402580000025803
:103280000004025800080258000C025800100258AE
:103290000014025800180258001C0258002002585E
:1032A000002402580069084201D001207047002024
:1032B0007047002A01D0816170470904816170471D
:1032C00001480068000C70470010005C044840682A
:1032D0000449B0FBF1F04FF47A71484370470000A5
:1032E000001000E00084D71702488168027811447A
:1032F000816070470800002410B5032000F0B4F886
:1033000001F0A6F80E4A1168C1F303230D49CB5C06
:1033100003F01F03D8400C4B1860126802F00F0234
:10332000895C01F01F01C84008490860002000F0D6
:103330000FF808B1012010BD00F068F8002010BDA2
:1033400018440258AC7B010800000024040000244B
:103350000648016841F08071016005480021416024
:10336000016841F00101016000207047FCED00E0C0
:10337000001000E0144A41781160111D03780A1D05
:10338000002B1CD043680B60017BC37A090741EA1C
:103390000361837A41EAC341437B41EA8341837BF2
:1033A00041EA4341C37B41EA0341437A41EA0321B5
:1033B000037A007841EA430101431160704700201D
:1033C000086010607047000098ED00E0BFF35F8F69
:1033D0000448016821F48031016002490020703105
:1033E0000860704724ED00E0074940F001000860E4
:1033F00005487038016841F480310160BFF34F8F98
:10340000BFF36F8F7047000094ED00E07047002815
:1034100009DB012100F01F0291404009800000F10A
:10342000E020C0F800117047F0B40D460D4B1B684A
:10343000C3F30223C3F10704042C00D90424191D8B
:10344000072901D2002300E0DB1E012606FA04F161
:10345000491E294099409E40761E16403143F0BCDB
:1034600004F01ABA0CED00E000F00701054A1068FC
:103470004FF6FF03184040EA01200349084310605B
:10348000704700000CED00E00000FA0510B500F0F8
:10349000DFFF06490968064AC1F30321515C01F0C8
:1034A0001F01C8400349086010BD000018440258BD
:1034B000AC7B01080000002410B500F08FFF054927
:1034C0000968054AC1F30211515C01F01F01C840AF
:1034D00010BD000020440258AC7B010810B56949BA
:1034E0000A6802F003020968C1F30531654B1B1D30
:1034F0001B6803F01003634C14342468C4F3CC0439
:1035000014FB03F300EE103AB8EE400A002971D024
:103510009FED5D1A5B4BF7EE000A1033F2B39FED9F
:103520005B2A012A7FD0022A7CD001EE901A19680A
:10353000F8EE611AC2EE212AC1F3080101EE901AD9
:10354000F8EE611A40EE011A31EEA00A22EE800A6E
:103550001968C1F3462101EE101AB8EE411A31EE96
:10356000201AC0EE011ABCEEE11A80ED001A1968AB
:10357000C1F3064101EE101AB8EE411A31EE201ADD
:10358000C0EE011ABCEEE11A80ED011A1968C1F310
:10359000066101EE101AB8EE411A00E008E071EE83
:1035A000200A80EE201ABCEEC10A80ED020A10BD8E
:1035B000344A283A1468A4061ED51268C2F3C1041E
:1035C000334AE24001EE902AF8EE612A01EE901AA9
:1035D0001968F8EE611A82EEA12AC1F3080101EE22
:1035E000901AF8EE611A40EE011A31EEA00A22EEAE
:1035F000000AADE741E016E001EE901ADFED252A62
:103600001968F8EE611A82EEA12AC1F3080101EEF1
:10361000901AF8EE611A40EE011A31EEA00A22EE7D
:10362000000A95E713E001EE901A1968F8EE611AA6
:10363000C2EE212AC1F3080101EE901AF8EE611AD8
:1036400040EE011A31EEA00A22EE800A80E701EE78
:10365000901ADFED112A1968F8EE611A82EEA12A9C
:10366000C1F3080101EE901AF8EE611A40EE011A5A
:1036700031EEA00A22EE000A6AE7002101604160F3
:10368000816010BD28440258000000390024744AAB
:103690000090D0030024744C20BCBE4B10B5694987
:1036A0000A6802F003020968C1F30551654B1B1D4E
:1036B0001B6803F48073634C1C342468C4F3CC048B
:1036C00014FB03F300EE103AB8EE400A002971D063
:1036D0009FED5D1A5B4BF7EE000A1833F2B39FEDD6
:1036E0005B2A012A7FD0022A7CD001EE901A196849
:1036F000F8EE611AC2EE212AC1F3080101EE901A18
:10370000F8EE611A40EE011A31EEA00A22EE800AAC
:103710001968C1F3462101EE101AB8EE411A31EED4
:10372000201AC0EE011ABCEEE11A80ED001A1968E9
:10373000C1F3064101EE101AB8EE411A31EE201A1B
:10374000C0EE011ABCEEE11A80ED011A1968C1F34E
:10375000066101EE101AB8EE411A00E008E071EEC1
:10376000200A80EE201ABCEEC10A80ED020A10BDCC
:10377000344A283A1468A4061ED51268C2F3C1045C
:10378000334AE24001EE902AF8EE612A01EE901AE7
:103790001968F8EE611A82EEA12AC1F3080101EE60
:1037A000901AF8EE611A40EE011A31EEA00A22EEEC
:1037B000000AADE741E016E001EE901ADFED252AA0
:1037C0001968F8EE611A82EEA12AC1F3080101EE30
:1037D000901AF8EE611A40EE011A31EEA00A22EEBC
:1037E000000A95E713E001EE901A1968F8EE611AE5
:1037F000C2EE212AC1F3080101EE901AF8EE611A17
:1038000040EE011A31EEA00A22EE800A80E701EEB6
:10381000901ADFED112A1968F8EE611A82EEA12ADA
:10382000C1F3080101EE901AF8EE611A40EE011A98
:1038300031EEA00A22EE000A6AE700210160416031
:10384000816010BD28440258000000390024744AE9
:103850000090D0030024744C20BCBE4B2DE9F84FDF
:10386000044600250026FB4F2068DFF8EC830101A9
:1038700004F1240000900DD5606EB0B1B0F5801F4A
:1038800018D0B0F5001F1BD0B0F5401F00D00125A7
:10389000E5B12E462088C00535D5606D05282FD2AC
:1038A000DFE800F01D22282F2F00386840F4003098
:1038B0003860EDE70221201D02F09CF80546E7E79D
:1038C0000098022102F028F90546E1E7D8F8000047
:1038D000616E20F440100843C8F80000DAE7386849
:1038E00040F4003038600CE00021201D02F082F826
:1038F000054606E00098002102F00EF9054600E0BA
:1039000001255DB12E462088800518D5A06D802840
:1039100030D00CDC18B340280ED125E0D8F80000D8
:10392000616D20F007000843C8F80000EBE7C028ED
:1039300003D0B0F5807F00D001250DB32E4620883E
:10394000DFF8189340052DD5D4F8A400B0F5800F0A
:1039500042D01EDCA0B3B0F5001F20D136E038689D
:1039600040F400303860E8E70021201D02F042F802
:103970000546E2E70098002102F0CEF80546DCE7B4
:10398000D8F80000A16D20F4E0700843C8F80000EA
:10399000D5E7B0F5C00F03D0B0F5000F00D001257A
:1039A00005B32E46208800052FD5D4F8A800B0F125
:1039B000007F52D020DCE8B3B0F1807F22D146E016
:1039C000FFE7386840F400303860E9E70021201D47
:1039D00002F010F80546E3E70098002102F09CF899
:1039E0000546DDE7D9F80000D4F8A41020F4600003
:1039F0000843C9F80000D5E7B0F1407F03D0B0F12B
:103A0000806F00D0012575B32E46206880010AD54D
:103A1000A06C30B1102831D0202835D0302800D00B
:103A2000012585B32E462088C00446D5E06DB0F54B
:103A3000005F00E006E05BD036DCA0B3B0F5805F4D
:103A400038D14FE0386840F400303860DBE70021BF
:103A5000201D01F0CFFF0546D5E70098002102F0B8
:103A60005BF80546CFE7FFE7D9F80000D4F8A810C7
:103A700020F0E0600843C9F80000C6E7386840F469
:103A800000303860CDE705E00221201D01F0B2FFD3
:103A90000546C6E77048001F0168A26C21F030019E
:103AA00011430160BFE718E0B0F5405F03D0B0F507
:103AB000804F00D001250DB32E46208880042FD5DD
:103AC000206EB0F5403F29D021DC38B3B0F5803FFF
:103AD00037D0B0F5003F20D139E0386840F40030ED
:103AE0003860E8E70021201D01F084FF0546E2E789
:103AF0000098002102F010F80546DCE7D8F8000035
:103B0000E16D20F4E0400843C8F80000D5E7B0F5C7
:103B1000802F03D0B0F5A02F00D00125EDB12E46A7
:103B2000208840042BD5D4F8AC00B0F1405F24D0FD
:103B30001CDC10B3B0F1805F4BD0B0F1005F1BD143
:103B40004EE00121201D01F055FF0546E6E70098F3
:103B5000012101F0E1FF0546E0E7D8F80000216E01
:103B600020F4E0200843C8F80000D9E7B0F1804F06
:103B700003D0B0F1A04F00D0012585B32E46208898
:103B800000040AD5E06E30B1B0F1805F39D0B0F1F9
:103B9000005F3BD001259DB32E462068C0010AD5A9
:103BA000606C30B1012841D0022844D0032800D0F5
:103BB00001258DB32E462068DFF8A4B0400261D500
:103BC0002848016841F480710160FFF77FFB82465D
:103BD00052E00121201D01F00DFF0546CDE705E073
:103BE0000098012101F098FF0546C6E7D9F80000CA
:103BF000D4F8AC1020F0E0400843C9F80000BEE75C
:103C00000BE0386840F400303860C4E70121201D23
:103C100001F0F0FE0546BEE713E0D8F80000E16EC3
:103C200020F040500843C8F80000B6E7386840F478
:103C300000303860BDE70221201D01F0DBFE0546A3
:103C4000B7E70548001F0168626C21F003011143CA
:103C50000160B0E72C4402585044025858440258BE
:103C60001044025800480258FFF730FBA0EB0A004E
:103C7000642801D9032503E0FE480068C005F3D598
:103C80007DB12E462078DFF8F0A3C00766D0A06F84
:103C9000182861D05BDC80B308286AD010285AD17C
:103CA0006DE0F5481C30006800F44071B4F8B000D5
:103CB00000F4407081420DD0EF481C30016821F4BF
:103CC0004071026842F480320260026822F480325D
:103CD00002600160D4F8B000B0F5807F13D1FFF727
:103CE000F5FA82460AE0FFF7F1FAA0EB0A0141F289
:103CF0008830814202D9032505E02DE0DE481C30E2
:103D000000688007EFD50DB12E46BBE7D4F8B000B0
:103D1000C0F3012103290FD0DBF8000020F47C5010
:103D2000CBF80000D4481C300168B4F8B020C2F3CE
:103D30000B0211430160A5E7DBF80010CF4A21F424
:103D40007C51104041EA1010CBF80000EAE720282F
:103D500002D0282800D00125BDB12E46207880074A
:103D60002BD5606F062825D2DFE800F025181E2528
:103D700025250121201D01F03DFE0546ECE70098B8
:103D8000012101F0C9FE0546E6E7DAF80000A16F5F
:103D900020F038000843CAF80000DFE70121201DA9
:103DA00001F028FE054606E00098012101F0B4FE6E
:103DB000054600E0012565B12E462078400720D554
:103DC000D4F89000062819D2DFE800F0190C121977
:103DD0001919DAF80000616F20F007000843CAF8EB
:103DE0000000EAE70121201D01F004FE054606E07F
:103DF0000098012101F090FE054600E001258DB1FB
:103E00002E462078800620D5D4F88C00B0F1405F93
:103E100019D011DCB8B1B0F1805F27D0B0F1005FEC
:103E200010D129E0D9F80000D4F8901020F0070054
:103E30000843C9F80000E4E7B0F1804F03D0B0F1C7
:103E4000A04F00D00125EDB12E46207840062CD59C
:103E5000D4F89800B0F5406F25D01DDC18B3B0F54C
:103E6000806F33D0B0F5006F1CD135E00021201DEC
:103E700001F0C0FD0546E6E70098022101F04CFE86
:103E80000546E0E7DAF80000D4F88C1020F0E040B6
:103E90000843CAF80000D8E7B0F5805F03D0B0F55A
:103EA000A05F00D00125EDB12E46207800062CD56C
:103EB000D4F89C00B0F5C04F25D01DDC18B3B0F588
:103EC000005F7CD0B0F5804F1CD1E0E00021201DC8
:103ED00001F090FD0546E6E70098022101F01CFE86
:103EE0000546E0E7D9F80000D4F8981020F4E05037
:103EF0000843C9F80000D8E7B0F5004F03D0B0F58B
:103F0000204F00D00125EDB32E46207800070BD5B9
:103F1000D4F88000B0F5805F75D0DAF8001021F495
:103F200040510143CAF800102078C0060BD5D4F8E0
:103F30009400B0F5807F68D0D9F8001021F440716A
:103F40000143C9F80010206800030BD5D4F8A00085
:103F5000B0B3B0F5803F7DD0B0F5003F00D0012573
:103F60007DB32E46206840030FD5D4F88400B0F509
:103F7000801F71D0B0F5001F6FD0B0F5401F00D08A
:103F8000012500E089E0E5B32E462068C00307D58F
:103F9000E06CB8B3B0F5803F72D00125A5B32E46D2
:103FA0002068800005D50098022101F0B5FD00B120
:103FB00001262068800311D5E06F68B102E060E05F
:103FC00089E094E0B0F5807F71D0B0F5007F03D038
:103FD000B0F5407F00D00125EDB32E462068C00229
:103FE00007D5D8F80000216F20F000400843C8F83A
:103FF00000002068C0000ED5DBF8000020F48040EF
:1040000004E089E092E053E09BE05AE0D4F8B41079
:104010000843CBF800002068800207D5D8F80000DC
:10402000A16E20F080700843C8F8000020684000AE
:104030000CD5DBF8000020F40040CBF80000DBF8E2
:104040000000D4F8B8100843CBF80000206800281E
:104050000CDA03E045E081E053E057E00648083819
:104060000168226D21F040511143016096B3012097
:10407000BDE8F88F0048025854440258FFFCFF0F77
:1040800059E00021201D01F0B5FC05463BE70098F2
:10409000022101F041FD054635E7D9F80000D4F8CA
:1040A0009C1020F460400843C9F800002DE750E060
:1040B0000098022101F030FD00283FF435AF0126C1
:1040C00032E70098022101F027FD00283FF43BAFC2
:1040D000012638E74BE00021201D01F08BFC05464E
:1040E0003EE70098022101F017FD054638E7D9F8B0
:1040F0000000D4F8A01020F440300843C9F80000B4
:1041000030E7386840F4003038603AE70098012121
:1041100001F002FD054634E7DAF80000D4F8841017
:1041200020F440100843CAF800002EE7386840F435
:104130000030386032E70221201D01F05BFC0546AB
:104140002CE70C480168E26C21F4803111430160D6
:1041500026E7386840F4003038603DE7DAF80000C0
:10416000E16F20F440700843CAF8000036E70020F1
:104170007EE700004C4402582DE9F05F04460D46EE
:10418000002C17D0DFF83882D8F8000000F00F00BC
:10419000A84211D2D8F8000020F00F002843C8F838
:1041A0000000D8F8000000F00F00A84204D0012061
:1041B000BDE8F09F0120FBE72078824E40070AD53A
:1041C0002069316801F07001884204D9316821F01A
:1041D00070010143316020787B4F00070AD5606988
:1041E000396801F07001884204D9396821F0700102
:1041F000014339602078C0060AD5A069396801F406
:10420000E061884204D9396821F4E06101433960F2
:104210002078DFF8B89180060DD5E069D9F8001054
:1042200001F07001884206D9D9F8001021F0700120
:104230000143C9F80010207880070AD5E06831688A
:1042400001F00F01884204D9316821F00F010143C8
:1042500031602078C00743D03068A16820F47060D6
:1042600008433060574960681839022808D003288D
:104270000BD001280ED00968490710D4012097E718
:10428000096889030BD4012092E70968890106D4E3
:1042900001208DE70968C90501D4012088E7DFF80E
:1042A00024A1AAF1080ADAF8001021F0070101435D
:1042B000CAF80010FFF70AF8834609E0FFF706F88E
:1042C000A0EB0B0141F28830814201D903206FE756
:1042D000DAF80000616800F03800B0EBC10FEDD1F2
:1042E000207880070AD5E068316801F00F01884224
:1042F00004D2316821F00F0101433160D8F8000089
:1043000000F00F00A8420ED9D8F8000020F00F00EE
:104310002843C8F80000D8F8000000F00F00A842B9
:1043200001D0012044E7207840070AD52069316890
:1043300001F07001884204D2316821F0700101431C
:104340003160207800070AD56069396801F0700192
:10435000884204D2396821F0700101433960207825
:10436000C0060AD5A069396801F4E061884204D228
:10437000396821F4E06101433960207880060DD569
:10438000E069D9F8001001F07001884206D2D9F82E
:10439000001021F070010143C9F8001000F058F836
:1043A00031680B4AC1F30321515C01F01F01C84081
:1043B0000849086008480068BDE8F05FFEF7C8BF1C
:1043C00000200052184402581C440258204402584D
:1043D000AC7B0108000000240C00002410B5FFF79E
:1043E00055F806490968064A01F00F01515C01F0D1
:1043F0001F01C8400349086010BD0000184402585E
:10440000AC7B01080400002410B5FFF7E7FF054965
:104410000968054AC1F30211515C01F01F01C8404F
:1044200010BD00001C440258AC7B010810B5FFF71A
:10443000D5FF05490968054AC1F30221515C01F025
:104440001F01C84010BD00001C440258AC7B01088D
:1044500030B564480068654C10F03801624808D0F7
:10446000021108290DD010290DD018290DD01046A1
:1044700030BD21688906FBD52168C1F3C101C84060
:1044800030BD104630BD5A4830BD564918310A6813
:1044900002F003020968C1F30511524B1C331B687B
:1044A00003F001034F4D24352D68C5F3CC0515FBF2
:1044B00003F300EE103AB8EE400A002977D0DFEDA2
:1044C0004D0A484BB7EE001A20333AB39FED4A2A03
:1044D000012A58D0022A6CD001EE901A1868F8EE22
:1044E000611AC2EE212AC0F3080001EE900AF8EE2C
:1044F000611A40EE201A31EE810A22EE800A186815
:10450000C0F34620401C00EE900AF8EE600A80EEF0
:10451000201ABCEEC10A10EE100A30BD22689206C5
:104520001BD52268C2F3C102D04001EE900A186880
:10453000F8EE612A01EE901AF8EE611A82EEA12AD5
:10454000C0F3080001EE900AF8EE611A40EE201A5E
:1045500031EE810A22EE000AD1E701EE901ADFED7A
:10456000272A1868F8EE611A82EEA12AC0F3080023
:1045700001EE900AF8EE611A40EE201A31EE810A3F
:1045800022EE000ABBE701EE901A1868F8EE611AF5
:10459000C2EE212AC0F3080001EE900AF8EE611A7B
:1045A00040EE201A31EE810A22EE800AA7E716E0DB
:1045B000FFE701EE901ADFED122A1868F8EE611A93
:1045C00082EEA12AC0F3080001EE900AF8EE611A0B
:1045D00040EE201A31EE810A22EE000A8FE7002019
:1045E00030BD0000104402580090D003004402582F
:1045F00040787D01000000390024744A0024744C86
:1046000020BCBE4B2DE9F05F0446002C10D0207872
:10461000DFF8EC83FB4FFC4DC0075DD0D8F80000FD
:1046200000F03800396810281FD0182803D006E0A1
:104630000120BDE8F09F01F00300022815D060685A
:10464000B0F5803F18D0E0B1B0F5A02F22D0286897
:1046500020F480302860286820F48020286060687A
:1046600060B3FEF733FE064624E02868800333D5A6
:10467000606810BB0120DCE7286840F480302860C7
:10468000EDE7286820F480302860286820F4802036
:104690002860E4E7286840F480202860286840F417
:1046A00080302860DBE7FEF711FE801B642801D90B
:1046B0000320BEE728688003F5D50DE0FEF706FE6F
:1046C000064606E0FEF702FE801B642801D903209F
:1046D000AFE728688003F5D4207841F2030ACB4E77
:1046E000800777D5D8F8000000F03800396870B13D
:1046F000182801D188070AD0E06880B3296821F022
:10470000190101432960FEF7E1FD814638E0286880
:10471000400701D5E06848B12868E16820F0190039
:1047200008432860FEF7D2FD814609E0012080E7BA
:10473000FEF7CCFDA0EB0900022801D9032078E7A1
:1047400028684007F4D5FEF7BBFD504508D830680F
:10475000216920F47C3040EA013030603AE026E004
:104760003068217C20F0FE4040EA0160306031E09A
:10477000FEF7ACFDA0EB0900022801D9032058E7A1
:1047800028684007F4D5FEF79BFD504507D83068F0
:10479000216920F47C3040EA013030601AE0306852
:1047A000217C20F0FE4040EA0160306012E0286881
:1047B00020F001002860FEF789FD814607E0FEF742
:1047C00085FDA0EB0900022801D9032031E7286804
:1047D0004007F4D42078C00670D5D8F8000000F067
:1047E00038003968DFF818B20828ABF1040B0FD095
:1047F000182803D101F00300012809D0E06978B33B
:10480000286840F080002860FEF760FD814628E0BF
:104810002868C00504D5E069802801D0012008E798
:10482000FEF74EFD504508D8306894F8201020F06F
:10483000F84040EA8160306040E0DBF8000094F826
:10484000201020F07C5040EA0160CBF8000035E0F9
:10485000FEF73CFDA0EB0900022802D90320E8E6A0
:104860001AE02868C005F3D5FEF72AFD504508D8A0
:10487000306894F8201020F0F84040EA8160306001
:104880001CE0DBF8000094F8201020F07C5040EA97
:104890000160CBF8000011E0286820F0800028605B
:1048A000FEF714FD064606E0FEF710FD801B022809
:1048B00001D90320BDE62868C005F5D4207800079B
:1048C0002AD5504E60694C3698B1306840F00100EE
:1048D0003060FEF7FBFC814607E0FEF7F7FCA0EB3B
:1048E0000900022801D90320A3E630688007F4D527
:1048F00012E0306820F001003060FEF7E7FC8146EE
:1049000007E0FEF7E3FCA0EB0900022801D9032031
:104910008FE630688007F4D42078800626D5A06919
:1049200090B1286840F480502860FEF7CFFC06461E
:1049300006E0FEF7CBFC801B022801D9032078E6B5
:1049400028688004F5D511E0286820F4805028609C
:10495000FEF7BCFC064606E0FEF7B8FC801B02280A
:1049600001D9032065E628688004F5D42078400743
:1049700078D5274E306840F480703060FEF7A6FC92
:10498000814607E0FEF7A2FCA0EB0900642801D9EC
:1049900003204EE63068C005F4D5DFF86890A068C3
:1049A00009F14809012816D0E0B1052832D0D9F81C
:1049B000000020F00100C9F80000D9F8000020F044
:1049C0000400C9F80000A06841F2883AB8B1FEF7C7
:1049D0007DFC064632E0D9F8000040F00100C9F83D
:1049E0000000F0E7D9F8000020F00100C9F800004D
:1049F000D9F8000020F00400C9F80000E3E722E045
:104A000010440258284402580044025804440258F2
:104A100000480258D9F8000040F00400C9F800002E
:104A2000D9F8000040F00100C9F80000CBE7FEF71C
:104A30004DFC801B504501D90320FAE5D9F8000050
:104A40008007F4D50EE0FEF741FC064606E0FEF7CF
:104A50003DFC801B504501D90320EAE5D9F8000050
:104A60008007F4D4606AE8B3D8F80010C1F3C2013B
:104A7000032975D0022807D0286820F080702860AC
:104A8000FEF724FC04467EE0286820F08070286051
:104A9000FEF71CFC064606E0FEF718FC801B022809
:104AA00001D90320C5E528688001F5D4386840F2B3
:104AB000F3318843E16A40EA0110A16A0843386093
:104AC000208E4FF6FF72616B401E491EC0F3080036
:104AD00002EA41210843218F4FF4FE02491E02EAF7
:104AE000014100E052E0084394F83C10491E1202D4
:104AF00002EA0161084327490860081F016821F0A4
:104B0000010101602349091D0A684FF6F8739A43B1
:104B1000A36C42EAC3020A600168226C21F00C0116
:104B2000114301600168626C21F0020111430160D0
:104B3000016841F480310160016841F40031016095
:104B4000016841F480210160016841F001010160C8
:104B5000286840F080702860FEF7B8FB044607E044
:104B600016E0FEF7B3FB001B022801D9032060E525
:104B700028688001F5D509E0FEF7A8FB001B022894
:104B800001D9032055E528688001F5D4002050E5BF
:104B900001204EE53044025803490A6822F46002BD
:104BA00002430A60704700000404005810B5044630
:104BB000002C03D0D4F8800010B107E0012010BD14
:104BC000002084F87C00204600F028F82420C4F857
:104BD00080002068016821F001010160204601F099
:104BE0006DFA012818D0A06A10B1204601F0D2F960
:104BF0002068416821F4904141602068816821F07B
:104C00002A0181602068016841F0010101602046AD
:104C1000BDE8104001F022BA012010BD70472DE917
:104C2000F84304460E4615461F46D4F88000202857
:104C300002D00220BDE8F883D6B1CDB194F87C0053
:104C4000012817D0012084F87C004FF00008C4F838
:104C500088802120C4F88000FEF738FB8146A4F844
:104C60005450A4F85650A068B0F5805F04D005E019
:104C70000120DFE70220DDE7206910B1354600267C
:104C800015E0002513E000224B46802120460097C6
:104C900002F0B4FC08B10320CCE7B5B1216815F8E7
:104CA000010B8862B4F85600401EA4F85600B4F810
:104CB00056000028E7D100224B46402120460097AD
:104CC00002F09CFC40B10320B4E7216836F8020BE7
:104CD000C0F308008862E5E72020C4F8800084F86B
:104CE0007C800020A6E7FEE708B5002100911F2286
:104CF0006B46FEF72CF808B1002008BD009808BDEF
:104D0000F8B50546002000900024002228464FF404
:104D100000431146FEF79CF908B10120F8BD0F20B1
:104D2000FDF798FC002228464FF480531146FEF709
:104D30008FF908B10120F8BD0F20FDF78BFC4FF46F
:104D400080366B46012228460021FEF700F8641CDD
:104D5000B44201D30320F8BD00988006F1D50020AD
:104D6000F8BD00002DE9F04186B02748016841F008
:104D700001010160016801F001010091016841F049
:104D800010010160016801F010010091016841F01B
:104D900040010160016801F040010091016841F0AB
:104DA00002010160006800F0020000904FF400442E
:104DB00001940120029003900220049001A9134D58
:104DC0002846FEF777F904260196114F01A93846C7
:104DD000FEF770F9019401A90E48FEF76BF94FF444
:104DE0008078CDF804800C4801A9FEF763F9AC6126
:104DF000BE6108481830046007481830C0F80080C9
:104E000006B0BDE8F0810000E044025800000258FE
:104E10000010025800180258000402587FB5FEF72F
:104E2000D5FA01258DF800501B48019007208DF818
:104E3000080003268DF80B608DF80F5000248DF8C4
:104E40000E408DF80D408DF801408DF80A408DF828
:104E500009408DF80C406846FEF78CFA8DF800503A
:104E60000E4801900D208DF808008DF80B608DF82C
:104E70000F408DF80E508DF80D408DF801508DF8D3
:104E80000A408DF809408DF80C406846FEF772FA2A
:104E90000420FEF7A9FA7FBD000004300040043072
:104EA000FEB505460E46144600200290019301A867
:104EB0000CF08EF98DF80800029BC3F3C00030702F
:104EC000C3F3031028700198694600F05BF901995B
:104ED00001440191009A8B18591A022904DB01A898
:104EE0000CF07CF920800120FEBD7FB505460E4602
:104EF0000020039002920024009002A80CF068F9B0
:104F00008DF80C000398C0F3031002281AD1029800
:104F100001A900F037F9029904464218029201985B
:104F20001044801A02280DDB02A80CF051F98DF80C
:104F30000000009800F00100287002A80CF048F969
:104F40003070012404B0204670BD2DE9FE4F0D469F
:104F5000064617469846DDE90CB9DDE90EA10020AA
:104F6000029001910024009001A80CF031F98DF815
:104F700008000298C0F3031103292BD1C0F3C0012C
:104F80003170C0F34101296000F0010038700198D0
:104F9000694600F0F7F80199044608440190009929
:104FA0004618584601A932460CF021F990B10198F3
:104FB000301A0FD42868002804DD01A80CF00EF97F
:104FC000A8F800000198301ACAF800000198C9F842
:104FD000000001242046BDE8FE8F2DE9FE4F8246E9
:104FE0000E4614461F460C984FF00009CDF8089065
:104FF0000190C84601A80CF0EBF88DF80800029863
:10500000C0F30310092827D10198694600F0BAF8C7
:10501000019980460844019000994518281A0228F1
:105020001ADB01A80CF0DAF8AAF80000C4F8009026
:105030000DE02068B04202DD4FF0FF380CE001A81F
:105040000CF0C6F82268511C216047F82200019834
:10505000A842EED34FF001084046BDE8FE8F2DE98F
:10506000F043ADF5077D804614461F464FF4FA79AC
:1050700000260896099600250791012C1CD0022CC9
:105080001AD000243846FBF70BFACDE9057007A8C3
:10509000234607C8CDE9006502AD07C50022494691
:1050A0000AA800F0E1F90146002909DC4FF0FF30C1
:1050B0000DF5077DBDE8F083FDF7C4FA0546E1E78D
:1050C0000AA810F0C5FE002802DA6FF00100EFE731
:1050D0003CB1012C6FF0020505D0022C0ED0681FE8
:1050E000E6E70020E4E705224046042102F08AFBBF
:1050F000002801DA2846DBE70120D9E705224046EF
:10510000114602F07FFB002801DA2846D0E7002292
:1051100043460AA8494600F0F9F9014639B10AA800
:1051200010F096FE002805DA6FF00500C0E76FF07A
:105130000300BDE705224046114602F063FB00284C
:1051400002DA6FF00600B3E70220B1E7F8B50746D0
:105150000E4601240025002030606D1C042D0FDC5C
:1051600001216846B84701280AD19DF8002030681F
:1051700002F07F0101FB04003060E4011006ECD472
:105180002846F8BD024A10600248FFF7DFBF000062
:10519000A8010024E582000810B504460020CA17C3
:1051A00001EB526323F07F02891ACAB2D911002998
:1051B00001DD42F08002034600F10100E254EEDC22
:1051C00010BD0000401C802801DA401C7047B0F57B
:1051D000804F01DA801C70470349884201DAC01C05
:1051E0007047001D70470000FFFF1F002DE9FC41C4
:1051F00004460F4615464FF0FF3600200190009000
:1052000001212046A847012818D169462846FFF702
:105210009DFF0099601CFFF7BFFF401C00990A1812
:10522000BA420BDC21B12044A8470099884205D13D
:1052300020788DF804000198C0F303163046BDE8CD
:10524000FC817CB50546069E002401940095042946
:1052500001DAA01E7CBD62F3071463F3C30401945A
:10526000062A15D024F0060201929DF80410684623
:1052700011F0E2FE00980221FFF78EFF009908442A
:1052800000903146684611F0DDFE0098401B7CBD61
:1052900024F00602921CE7E72DE9FE4305460F467F
:1052A00014460295002601960096204600F092F8DA
:1052B0008046FFF787FFB84202DDB01EBDE8FE83DF
:1052C0008DF80460019820F0F000103001909DF8F6
:1052D000041002A811F0B0FE02984146FFF75CFFEF
:1052E000029908440290207A042813D035A102A81C
:1052F00011F08EFE032102A811F09EFE8DF80060D1
:10530000A17E009861F341000090E17E59B140F028
:1053100004000AE02DA102A811F07AFE042102A8DF
:1053200011F08AFEEAE720F004000090410708D55A
:1053300094F83D1061F3C40094F83C1061F34510FB
:105340000090206C08B9A06C18B1009840F0800063
:105350000090E06C08B9606D18B1009840F0400012
:1053600000909DF8001002A811F066FE218B02A8A3
:1053700011F068FED4E90423E16802A811F071FE7F
:10538000E07E58B1D4E90A23616A02A811F069FEEF
:10539000D4E90D23216B02A811F063FE009E3006B4
:1053A00005D5D4E91123216C02A811F05AFE70062C
:1053B00004D54C3402A80ECC11F053FE0298401BC9
:1053C0007CE700004D514973647000004D51545406
:1053D0000000000070B504460025207A032802D0A2
:1053E000042802D002E00C2500E00A25E068D4E998
:1053F000041200F093FA0544AD1CE07E68B1606AC7
:10540000D4E90A1200F08AFAD4E90D120646206B9C
:1054100000F084FA304405442D1D206C08B9A16CBD
:1054200029B1D4E9111200F079FA0544AD1CE06C01
:1054300008B9616D29B1D4E9141200F06FFA05447E
:10544000AD1C284670BD0C2200F0C7B808B500237B
:1054500000920422FFF7F5FE08BD08B50023009274
:105460000722FFF7EEFE08BD2DE9FE4F05460F4669
:1054700090461C46DDE90C9A129E02950020019090
:105480000EA9009620460EC900F032F88346FFF7B9
:1054900099FEB84203DD6FF00100BDE8FE8F3020B9
:1054A00068F3C30064F3420069F3000001909DF8C3
:1054B000041002A811F0C0FD02985946FFF76CFED7
:1054C0000299084402900EA902A80EC911F0C9FD64
:1054D000002C03DD02A8514611F0B4FD11993246AB
:1054E0000298FAF7ABFF029830440290401BD4E7D1
:1054F0007FB50546089C01A807C800F00FFA2044B4
:10550000801C002D00DD801C04B070BD08B5009328
:1055100013460622FFF795FE08BD2DE9FF4F83B025
:1055200006468A469346DDE91189109F02960025BA
:10553000019500244146384600F039F80090FFF705
:1055400041FE504503DDA01E07B0BDE8F08F8DF889
:105550000450019820F0F00080306BF3C30020F07D
:105560000600801C01909DF8041002A811F064FD53
:1055700000990298FFF710FE0299084402900699DC
:1055800002A811F05FFD0DE004EB440008EB80057C
:1055900002A80ECD11F065FD19F8241002A811F033
:1055A0004BFD641CBC42EFDB0298801BCCE72DE96D
:1055B000F04106460F460225002409E004EB4400B2
:1055C00007EB800307CB00F0A9F90544ED1C641C30
:1055D000B442F3DB2846BDE8F0811CB50446002048
:1055E00001900094022901DA801E1CBD8DF8040090
:1055F000019862F3071001909DF80410684611F0BD
:105600001BFD00980021FFF7C7FD009901440091A0
:10561000081B1CBD2DE9F043A7B0044600202690CE
:105620002590642709900A900B900223049305901B
:105630000690012304F007000DF1180803FA00F6A4
:10564000E01704EB5070C510042C04D218F80500C4
:10565000304308F805000991089209A9DFF8AC90D9
:1056600008A802900022CDE90031D9F80800411CB9
:10567000C9F8081083B239460CA8FFF74EFF01465F
:105680000CA810F0E5FB002804DA4FF0FF3027B03B
:10569000BDE8F083002304A81A4606A90090601C08
:1056A00007F0A0FC90B1042C03D218F8050030429A
:1056B00002D16FF00200EAE7154A0CA83946FFF75D
:1056C00095FD092805D06FF00300E0E76FF00100B9
:1056D000DDE70CA8CDE90007012107AB25AA26A824
:1056E000FFF77BFC012802D06FF00400CFE707989A
:1056F000802806D0D9F80800BDF89810401E8142D5
:1057000002D06FF00500C2E70020C0E724000024AB
:10571000E55D010810B5CAB05822254934A8FAF74A
:105720008DFEC82423A037903220ADF8E8002BA0CE
:10573000449031A0479004208DF8D80001208DF8C6
:10574000EA0034AA214602A8FFF7A6FD014602A8F6
:1057500010F07EFB334A02A82146FFF747FD0228DE
:1057600008D031A002F074F833A002F071F80220E2
:105770004AB010BD02AA234601A86946FFF7B5FB4F
:10578000012802D19DF8000048B127A002F060F87E
:105790009DF800102DA002F05BF80120E8E722A0A0
:1057A00002F056F830A002F053F80020E0E70000C5
:1057B000BC7B010831323334357C736563757265A7
:1057C0006D6F64653D332C7369676E6D6574686FCA
:1057D000643D686D6163736861317C006669726500
:1057E0005F74656D705F68756D2661314D5A486AEA
:1057F0004B32534346000000443634313938393691
:1058000045374245414638424439443033433838BD
:1058100042463835344541304433443530364145CD
:1058200000000000E55D01080D0A5B444542554754
:105830005D203E3E200000004D515454C1ACBDD30C
:10584000CEDECFECD3A6A3A10A000000CEDEB7A81F
:10585000C1ACBDD3A3ACB4EDCEF3B4FAC2EBCAC7AE
:105860003A202564A3A10A00D3C3BBA7C3FBD3EB93
:10587000C3D8D4BFD1E9D6A4B3C9B9A6A3AC4D51FE
:105880005454C1ACBDD3B3C9B9A6A3A10A0000004A
:105890002DE9F041B6B004464FF0C808052001904C
:1058A000002002900390012604F0070003AF864019
:1058B000E01704EB5070C510042C02D2785D304321
:1058C000785504A84146FFF7BEFD014604A810F034
:1058D000BFFA002301A81A4603A90090601C07F034
:1058E00081FB98B1042C02D2785D304204D16FF074
:1058F000010036B0BDE8F081074A04A84146FFF731
:1059000075FC0D2805D06FF00200F2E74FF0FF3074
:10591000EFE70020EDE70000E55D010817B400980F
:10592000002803D000981EBCFAF7BABD01981EBC2F
:105930007047FEE7704700002DE9FC41044616A0C1
:1059400001F086FF18A001F083FF204602F006FE5A
:1059500007461AA1384602F0D1FD0446384619A17F
:1059600002F0CCFD0546384618A102F0C7FD0646F8
:1059700009A001F06DFF96ED060B15A08DED000B53
:1059800095ED060B216953EC102B01F061FF3846B1
:10599000BDE8FC4102F08EBD0D0A5B44454255470F
:1059A0005D203E3E20000000BFAACABCBDE2CEF68C
:1059B0004A534F4ECAFDBEDD000000006E616D65AA
:1059C0000000000074656D700000000068756D00D7
:1059D0006E616D653A25730A2074656D705F6E7532
:1059E0006D3A25660A2068756D5F6E756D3A25669D
:1059F0000A0000002DE9F047044688460027DFF83A
:105A00001491D9F80000C043800709D0414D283DCA
:105A1000286820F080602860FDF758FC064609E001
:105A20000120BDE8F087FDF751FC801B022801D959
:105A30000320F6E728680001F5D4D9F800002168B2
:105A400020F47C3040EA0130C9F80000A0884FF60D
:105A5000FF72A168401E491EC0F3080002EA4121FE
:105A60000843A1894FF4FE02491E02EA014108439E
:105A7000217C1202491E02EA0161084325491031C6
:105A800008602448001D0168626921F0C0011143CB
:105A900001600168A26921F02001114301600168E1
:105AA00021F0100101601B4914310A684FF6F873A8
:105AB0009A43E36942EAC3020A60016841F01001B7
:105AC0000160B8F1000F0ED0B8F1010F10D00168DD
:105AD00041F400110160286840F080602860FDF703
